:020000040800F2
:1000000000000220ED1C0008D11B0008D31B0008D3
:10001000D51B0008D71B0008D91B000800000000F2
:10002000000000000000000000000000DB1B0008D2
:10003000DD1B000800000000DF1B0008E11B0008BA
:100040003D1D00083D1D00083D1D00083D1D000828
:100050003D1D00083D1D00083D1D00083D1D000818
:100060003D1D00083D1D00083D1D00083D1D000808
:100070003D1D00083D1D00083D1D00083D1D0008F8
:100080003D1D00083D1D00083D1D00083D1D0008E8
:100090003D1D00083D1D00083D1D00083D1D0008D8
:1000A0003D1D0008E51B00083D1D00083D1D000822
:1000B0003D1D00083D1D00083D1D00083D1D0008B8
:1000C0003D1D00083D1D00083D1D00083D1D0008A8
:1000D0003D1D00083D1D0008F11B0008FD1B000828
:1000E0003D1D00083D1D00083D1D00083D1D000888
:1000F0003D1D00083D1D00083D1D00083D1D000878
:100100003D1D00083D1D00083D1D00083D1D000867
:100110003D1D00083D1D00083D1D00083D1D000857
:100120003D1D00083D1D00083D1D00083D1D000847
:100130003D1D00083D1D00083D1D00083D1D000837
:100140003D1D00083D1D00083D1D00083D1D000827
:100150003D1D00083D1D00083D1D00083D1D000817
:100160003D1D00083D1D00083D1D00083D1D000807
:100170003D1D00083D1D00083D1D00080000000059
:080180003D1D00083D1D0008B3
:1001900010B5054C237833B9044B13B10448AFF3C1
:1001A00000800123237010BD6C00002000000000BF
:1001B000C82C000808B5034B1BB103490348AFF333
:1001C000008008BD0000000070000020C82C00085E
:1001D00001F0FF01102A2BDB10F0070F08D010F8F8
:1001E000013B013A8B422DD010F0070F42B3F6D1FC
:1001F000F0B441EA012141EA014122F007047FF015
:1002000000070023F0E80256083C85EA010586EA6B
:10021000010685FA47F5A3FA87F586FA47F6A5FAA7
:1002200087F68EB9EED1F0BC01F0FF0102F00702B3
:1002300032B110F8013B013A83EA010313B1F8D15E
:100240000020704701387047002D06BF354603383F
:10025000073815F0010F07D1013015F4807F02BF78
:10026000013015F4C03F0130F0BC0138704700BFC9
:1002700053B94AB9002908BF00281CBF4FF0FF310D
:100280004FF0FF3000F072B9ADF1080C6DE904CE0B
:1002900000F006F8DDF804E0DDE9022304B0704761
:1002A0002DE9F047089E04468846002B4BD18A4230
:1002B000154667D9B2FA82F24AB1C2F1200701FAB3
:1002C00002F320FA07F7954047EA030894404FEA03
:1002D000154E230CB8FBFEF71FFA85FC0EFB1788A2
:1002E00043EA084307FB0CF1994209D9EB1807F1DF
:1002F000FF3080F01B81994240F21881023F2B446D
:100300005B1AA4B2B3FBFEF00EFB103344EA0344C5
:1003100000FB0CFCA44509D92C1900F1FF3380F037
:100320000781A44540F2048102382C4440EA07408A
:10033000A4EB0C0400271EB1D4400023C6E90043FF
:100340003946BDE8F0878B4209D9002E00F0EB80DA
:100350000027C6E9000138463946BDE8F087B3FA00
:1003600083F7002F47D18B4202D3824200F2FA80FA
:10037000841A61EB030301209846002EE0D0C6E901
:100380000048DDE702B9FFDEB2FA82F2002A40F04F
:100390008F80491B4FEA154E1FFA85F80127B1FBE4
:1003A000FEFC230C0EFB1C1143EA014308FB0CF17D
:1003B000994207D9EB180CF1FF3002D2994200F2B2
:1003C000CD808446591AA3B2B1FBFEF00EFB101487
:1003D00043EA044408FB00F8A04507D92C1900F1B2
:1003E000FF3302D2A04500F2B6801846A4EB080401
:1003F00040EA0C409FE7C7F1200CBB4022FA0CFEFC
:100400004EEA030E01FA07F420FA0CF521FA0CF378
:100410004FEA1E482543B3FBF8F92C0C08FB1933AF
:100420001FFA8EFA44EA034309FB0AF49C4202FADB
:1004300007F200FA07F10BD91EEB030309F1FF30B5
:1004400080F087809C4240F28480A9F102097344C5
:100450001B1BADB2B3FBF8F008FB103345EA0344B5
:1004600000FB0AFAA24508D91EEB040400F1FF3391
:100470006BD2A24569D90238744440EA0940A0FB16
:100480000289A4EB0A044C45C2464B4654D351D0D2
:10049000002E69D0B1EB0A0564EB030404FA0CFCEE
:1004A000FD40FC404CEA0505C6E90054002747E73B
:1004B000C2F1200320FA03F7954001FA02F021FA75
:1004C00003F34FEA154E3843010CB3FBFEF71FFA56
:1004D00085F80EFB173341EA034107FB08F38B4213
:1004E00004FA02F407D9691807F1FF3C2FD28B42B6
:1004F0002DD9023F2944CB1A81B2B3FBFEF00EFB8B
:10050000103341EA034100FB08F38B4207D9691815
:1005100000F1FF3C17D28B4215D902382944C91A81
:1005200040EA07473BE73746304609E70746E7E634
:100530001846FBE64145ABD2B8EB020A69EB0E0266
:1005400001381346A4E76046E9E7184695E7674691
:10055000D1E781467CE702382C4447E7ACF1020C36
:100560002B442FE7384608E73746E9E6704700BFD7
:1005700008B50B4B1A6842F400721A601A6842F40C
:1005800080621A601A6842F480721A60032000F0D8
:100590002FF8002001F0DEFA01F04AFA002008BD31
:1005A000003C0240034A044B11681B780B44136063
:1005B000704700BFA400002000000020014B186815
:1005C000704700BFA400002038B50446FFF7F6FFCF
:1005D000631C1CBF054B1B78054618BFE418FFF7CA
:1005E000EDFF401BA042FAD338BD00BF0000002041
:1005F000074AD36823F4E0631B041B0C43F0BF637A
:10060000000243F4003300F4E0600343D36070471A
:1006100000ED00E0174B70B5DC68C4F30224C4F1B0
:100620000705042D04F1040328BF04254FF0FF360D
:10063000062B06FA05F38CBF033C002421EA0303D2
:10064000A34006FA04F422EA0404002843EA04035F
:10065000A8BF00F160404FEA0313BCBF00F00F00D9
:10066000054ADBB2AABF00F56140135480F800339D
:1006700070BD00BF00ED00E014ED00E0002808DBD5
:100680004209012300F01F0003FA00F0014B43F878
:100690002200704700E100E090F83530022B03D0D3
:1006A00080234365012070470268052380F83530B8
:1006B000136823F001031360002070472DE9F04F09
:1006C00085B00B68DFF8AC81684ADFF8AC91019324
:1006D00000234FF0010C019C0CFA03FC04EA0C0609
:1006E000B44540F0AE804C6824F01007022F16D1BC
:1006F0004FEAD30A00EB8A0A03F0070BDAF820501E
:100700004FEA8B0B4FF00F0E0EFA0BFE25EA0E0E82
:100710000D6905FA0BF545EA0E05CAF820504FEAB7
:10072000430A0325D0F800B005FA0AF5ED4304F0BA
:10073000030E05EA0B0B0EFA0AFE013F4EEA0B0E02
:10074000012FC0F800E011D8876807EA050BCF68D1
:1007500007FA0AFE4EEA0B078760476827EA0C0C87
:10076000C4F300179F4047EA0C074760C7683D4045
:100770008F6807FA0AF73D43C560E50061D54FF081
:10078000000BCDF80CB0D8F84470394D47F48047D1
:10079000C8F84470D8F8447007F480470397039F63
:1007A00023F0030707F1804707F59C3703F0030E9A
:1007B000D7F808A04FEA8E0E4FF00F0C0CFA0EFC83
:1007C000A8422AEA0C0C43D005F58065A84241D026
:1007D00005F58065A8423FD005F58065A8423DD06B
:1007E00005F58065A8423BD048453BD005F500653E
:1007F000A84239D005F58065A84214BF0825072511
:1008000005FA0EF545EA0C05BD601568F74314F4CA
:10081000803F0CBF3D4035431560556814F4003FE0
:100820000CBF3D4035435560956814F4801F0CBFE4
:100830003D4035439560D568A40254BF3D403543E3
:10084000D5600133102B7FF444AF05B0BDE8F08FC5
:100850005D46D5E70125D3E70225D1E70325CFE79C
:100860000425CDE70525CBE70625C9E7003C014077
:10087000000002400038024000140240036919429F
:1008800014BF0120002070470AB18161704709043C
:10089000FBE700002DE9F341044618B9012002B03E
:1008A000BDE8F0810368DD0710D42368980758D4A9
:1008B00023681A0700F19A8023685B0700F1B8806B
:1008C000A269002A40F019810020E8E7A64B9A6847
:1008D00002F00C02042A07D09A6802F00C02082ADF
:1008E0000AD15B68590207D59F4B1B689A03DCD578
:1008F0006368002BD9D1D1E763689B4DB3F5803F86
:1009000011D12B6843F480332B60FFF757FE964DCF
:1009100006462B689B03C8D4FFF750FE801B642853
:10092000F7D90320BBE7B3F5A02F04D12B6843F41C
:1009300080232B60E5E72A6822F480322A602A6847
:1009400022F480222A60002BDFD1FFF737FE064613
:100950002B689F03A9D5FFF731FE801B6428F7D9C8
:10096000DFE7814B9A6812F00C0F07D09A6802F00B
:100970000C02082A11D15B685E020ED47A4B1A6809
:10098000950702D5E268012A88D11A68216922F008
:10099000F80242EAC1021A608AE7E268734BB2B118
:1009A00001221A60FFF70AFE6F4D06462B68980772
:1009B00007D52B68226923F0F80343EAC2032B60B2
:1009C00076E7FFF7FBFD801B0228EFD9A9E71A6045
:1009D000FFF7F4FD644D06462B6899077FF568AF75
:1009E000FFF7ECFD801B0228F6D99AE76269604B9D
:1009F0007AB101221A60FFF7E1FD5B4D06466B6F8D
:100A00009F073FF559AFFFF7D9FD801B0228F6D9A4
:100A100087E71A60FFF7D2FD534D06466B6F9807C4
:100A20007FF54AAFFFF7CAFD801B0228F6D978E7A9
:100A30004D4B1A6C12F0805228D101921A6C42F080
:100A400080521A641B6C03F080530193019B0126B2
:100A5000484D2B68D9051BD5A368434D012B27D1E1
:100A60002B6F43F001032B67FFF7A8FD3E4D0746B0
:100A700041F288382B6F9B0739D5002E3FF420AF09
:100A8000394A136C23F08053136419E70026DFE71B
:100A90002B6843F480732B60FFF790FD07462B68AB
:100AA000DA05D9D4FFF78AFDC01B0228F7D938E749
:100AB000052B04D12B6F43F004032B67D0E72A6F7B
:100AC00022F001022A672A6F22F004022A67002B13
:100AD000CAD1FFF773FD41F2883807462B6F98079C
:100AE000CBD5FFF76BFDC01B4045F7D919E7FFF7E2
:100AF00065FDC01B4045BDD913E71B4DAB6803F036
:100B00000C03082B3FF4CAAE1B4E0023022A3360AD
:100B100034D1FFF753FD07462B6899011ED4D4E961
:100B200007321343626A43EA8213E26A43EA0263CA
:100B3000A26A0D4C5208013A43EA02436B6001235A
:100B40003360FFF73BFD054623689A013FF5BCAED5
:100B5000FFF734FD401B0228F6D9E2E6FFF72EFD31
:100B6000C01B0228D8D9DCE600380240000047420A
:100B7000800E47420070004060004742FFF71EFDB4
:100B800004462B689B017FF59FAEFFF717FD001B06
:100B90000228F6D9C5E600BF134908B58B6803F0F3
:100BA0000C03042B03D0082B03D0104800E010489E
:100BB00008BD4A684B68496813F4800314BF0C48A9
:100BC0000A48C1F3881118BF002302F03F02A1FBBD
:100BD0000001FFF74DFB044B5B68C3F30143013396
:100BE0005B00B0FBF3F0E3E7003802400024F400C0
:100BF00040787D012DE9F0410D46044610B90120F1
:100C0000BDE8F081434B1A6802F00F028A4227D3F5
:100C100021688F072CD4C8073FD43E4B1A6802F0D6
:100C20000F02AA4264D8226851076AD4130707D575
:100C3000394A2169936823F4604343EAC10393600E
:100C4000FFF7AAFF344B354A9B68C3F30313D35C09
:100C5000D840334B1860002000F07CFF0020CFE725
:100C6000CAB21A701B6803F00F038B42C7D1CFE7DB
:100C7000294B11F0040F1EBF9A6842F4E0529A60AB
:100C80000E0742BF9A6842F460429A609A68A06870
:100C900022F0F00202439A60BDE762681E4B012A0F
:100CA0001CD11B6813F4003FA9D01B4EB36823F07E
:100CB00003031343B360FFF781FC41F28838074612
:100CC000B368626803F00C03B3EB820FA5D0FFF7A3
:100CD00075FCC01B4045F3D9032091E7911E012903
:100CE0001B6802D813F0007FDEE713F0020FDBE78A
:100CF000EAB21A701B6803F00F03AB427FF47FAFB8
:100D000091E70549E0688B6823F4E05303438B6067
:100D10008CE700BF003C024000380240E42D000890
:100D200004000020044B054A9B68C3F38223D35C74
:100D3000034A1068D840704700380240F42D00087C
:100D400004000020044B054A9B68C3F34233D35C84
:100D5000034A1068D840704700380240F42D00085C
:100D6000040000200F2303600B4B9A6802F003027B
:100D700042609A6802F0F00282609A6802F4E052DF
:100D8000C2609B68DB0803F4E0530361034B1B68FC
:100D900003F00F030B60704700380240003C024034
:100DA00070470368DA6842F00102DA609A6802F07C
:100DB0000702062A1EBF1A6842F001021A600020CC
:100DC0007047704770477047704703681A6991070A
:100DD00010B504460ED5DA6892070BD56FF0020203
:100DE0001A619B6901229B07027777D0FFF7EAFF20
:100DF0000023237723681A69500710D5DA68510752
:100E00000DD56FF004021A619B69022213F4407F32
:100E10002277204668D0FFF7D5FF00232377236889
:100E20001A6912070FD5DA6810070CD56FF008029F
:100E30001A61DB6904229907227720465AD0FFF70E
:100E4000C1FF0023237723681A69D20610D5DA6818
:100E5000D0060DD56FF010021A61DB69082213F479
:100E6000407F227720464BD0FFF7ACFF002323774B
:100E700023681A69D10708D5DA68D20705D56FF05B
:100E800001021A61204600F0C9FD23681A691006A4
:100E900008D5DA68110605D56FF080021A61204680
:100EA00000F0B7F823681A69520608D5DA685006C8
:100EB00005D56FF040021A612046FFF785FF2368D1
:100EC0001A69910622D5DA6892061FD56FF02002C2
:100ED00020461A61BDE8104000F09AB8FFF771FF94
:100EE0002046FFF770FF83E7FFF76BFF2046FFF711
:100EF0006AFF92E7FFF765FF2046FFF764FFA0E770
:100F0000FFF75FFF2046FFF75EFFAFE710BD000071
:100F1000304A0368904212D0B0F1804F0FD0A2F552
:100F20007C4290420BD002F58062904207D002F5DD
:100F30008062904203D002F57842904219D14A680B
:100F400023F070031343234A904229D0B0F1804F1D
:100F500026D0A2F57C42904222D002F580629042D7
:100F60001ED002F5806290421AD002F5784290427B
:100F700016D0194A904213D002F5806290420FD0E9
:100F800002F5806290420BD0A2F59832904207D0D1
:100F900002F58062904203D002F58062904203D154
:100FA000CA6823F4407313434A6923F08003134350
:100FB00003608B68C3620B688362064B984203D060
:100FC00003F58063984201D10B69036301234361F8
:100FD000704700BF000001400040014010B50446CA
:100FE000A0B190F83D3003F0FF021BB980F83C201F
:100FF000FFF7D6FE022384F83D302068211DFFF75D
:1010000087FF012384F83D30002010BD0120FCE75C
:10101000704770470368DA6822F49072DA605A69A0
:1010200022F001025A61202380F83A307047000014
:101030002DE9F8430368C1681A69044622F4405256
:101040000A431A612569A268D968C0692A4365699B
:1010500021F416412A4321F00C0102430A43DA60CD
:101060005A69A16922F440720A43B0F5004F5A61EF
:101070007A4A7BD1934203D002F58062934244D1F5
:10108000FFF760FE676819254FF0640805FB00F361
:101090007F00B3FBF7F3B3FBF8F31F01FFF752FE3A
:1010A000636868435B00B0FBF3F6FFF74BFE6368D1
:1010B00068435B00B0FBF3F3B3FBF8F308FB136387
:1010C000DB003233B3FBF8F35B0003F4F876FFF791
:1010D00039FE626868435200B0FBF2F9FFF732FE56
:1010E0006368226868435B00B0FBF3F3B3FBF8F37B
:1010F00008FB1393DB003233B3FBF8F303F0070371
:101100003B4433449360BDE8F883FFF70BFE676808
:1011100019254FF0640805FB00F37F00B3FBF7F3DC
:10112000B3FBF8F31F01FFF7FDFD636868435B0045
:10113000B0FBF3F6FFF7F6FD636868435B00B0FBB6
:10114000F3F3B3FBF8F308FB1363DB003233B3FBB9
:10115000F8F35B0003F4F876FFF7E4FD6268684398
:101160005200B0FBF2F9FFF7DDFDB9E7934202D080
:101170003B4A934241D1FFF7E5FD676819254FF0DF
:10118000640805FB00F3BF00B3FBF7F3B3FBF8F310
:101190001F01FFF7D7FD636868439B00B0FBF3F6C0
:1011A000FFF7D0FD636868439B00B0FBF3F3B3FB2C
:1011B000F8F308FB13631B013233B3FBF8F303F0BE
:1011C000F006FFF7BFFD626868439200B0FBF2F9DA
:1011D000FFF7B8FD6368226868439B00B0FBF3F338
:1011E000B3FBF8F308FB13931B013233B3FBF8F3A3
:1011F00003F00F0333433B4484E7FFF793FD676835
:1012000019254FF0640805FB00F3BF00B3FBF7F3AB
:10121000B3FBF8F31F01FFF785FD636868439B008C
:10122000B0FBF3F6FFF77EFD636868439B00B0FBFD
:10123000F3F3B3FBF8F308FB13631B013233B3FB87
:10124000F8F303F0F006FFF76DFD62686843920063
:10125000B0FBF2F9FFF766FDBCE700BF00100140EC
:101260000014014010B5044640B390F8393003F043
:10127000FF021BB980F8382000F0F6FB2268242317
:1012800084F83930D36823F40053D3602046FFF745
:10129000CFFE23681A6922F490421A615A6922F03B
:1012A0002A025A61DA6842F40052DA6000202023F0
:1012B000E06384F8393084F83A3010BD0120FCE74F
:1012C00090F83930202B18D1A9B1A2B190F838305C
:1012D000012B12D0C2840162828400230168C3639F
:1012E000212280F83920CA6880F8383042F0800224
:1012F000CA6018467047012070470220704790F876
:101300003A30202B20D1E9B1E2B190F83830012BEE
:101310001AD0C285828500232222C36380F83A2036
:1013200002688162D16880F8383041F48071D16000
:10133000516941F001015161D16841F02001D16052
:1013400018467047012070470220704790F83A30E5
:10135000222B10B533D181680469836A0268B1F524
:10136000805F23D15268ECB9C2F3080223F8022B44
:101370008362C48D013CA4B2C4858CB90368DA6869
:1013800022F02002DA60DA6822F48072DA605A69A8
:1013900022F001025A61202380F83A3000F0BEFAB0
:1013A00000200DE0D2B223F8012BE1E7591C52686E
:1013B00081620CB91A70DCE702F07F02FAE70220C2
:1013C00010BD000003681A68D96870B51607044696
:1013D0005D6907D1960658D58D0656D5BDE8704093
:1013E000FFF7B4BF15F0010502D111F4907F4CD086
:1013F000D30705D5CE0542BFE36B43F00103E3639A
:10140000500704D51DB1E36B43F00203E363930778
:1014100004D51DB1E36B43F00403E363160704D561
:101420001DB1E36B43F00803E363E36B43B395063D
:1014300004D5880602D52046FFF788FF23685D693A
:10144000E26B1107204602D415F0400519D0FFF7D2
:10145000E1FD23685A6952060FD55A69606B22F084
:1014600040025A6148B1264B0365FFF715F938B1C0
:10147000606BBDE87040036D1847204600F094FA99
:1014800070BD00F091FAE563FAE7160628D50D065F
:1014900026D594F83920212AF2D1A168226AB1F523
:1014A000805F18D11188C1F308015960216981B9A1
:1014B00002322262E28C013A92B2E284002ADFD147
:1014C000DA6822F08002DA60DA6842F04002DA601C
:1014D000D6E70132EDE7511C216212785A60E9E744
:1014E0005006CDD54A06CBD5DA6822F04002DA6044
:1014F000202384F83930204600F0D4F9C0E700BF3B
:101500000515000808B5806B0023C385C38400F06F
:101510004BFA08BD30B5142495B02246002109A825
:1015200000F038FC2246002103A800F033FC002420
:101530001B4B01941A6C42F080521A641B6C03F02E
:1015400080530193019B174B02941A6842F4804226
:101550001A601B6803F4804302930122029B10234C
:10156000CDE90B230821A8230225CDE9101308A8F3
:10157000042313930895CDE90E541295FFF78AF9C9
:101580000F23CDE903354FF4A0504FF48053CDE93C
:101590000603052103A80594FFF72CFB15B030BD09
:1015A00000380240007000402DE9F04F8FB0FEF788
:1015B000DFFFFFF7AFFF1422002109A800F0EAFBCC
:1015C00000279C4B04971A6B9B489C4CDFF8C492F5
:1015D00042F080021A631A6B02F080020492049AAD
:1015E00005971A6B42F004021A631A6B02F00402A8
:1015F0000592059A06971A6B42F001021A631A6B5C
:1016000002F001020692069A07971A6B42F0020254
:101610001A631A6B02F002020792079A08971A6B74
:1016200042F008021A631B6B03F008033A46089362
:101630000821089BFFF728F9022309A980480B938A
:101640000126CDE90937FFF739F809A97D480B973D
:10165000CDE90967FFF732F809A908237648CDE9F3
:101660000936CDE90B77FFF729F87748774B076103
:101670004FF4E1380C25C0E90038C0E90557C0E94E
:101680000277C761FFF7EEFD714B2046C4E90038D1
:10169000C4E90475C4E90277C4E90677FFF7E2FDFF
:1016A0000A20FEF791FF6B4D6B4BDFF8EC811F704A
:1016B0002E806A4EA9F80070A8F8007037802A883A
:1016C00067492046FFF71BFE444601954D4610B181
:1016D000644800F0EFFB644A0023D9B2D1540133CF
:1016E000642BFAD1DFF8B481DFF8B4A1002798F8B1
:1016F0000030012B2DD15D4BDFF884915C484FF019
:10170000000B88F800B0197899F8002000F04AFB27
:10171000584800F047FB584A59464B46187801F1A3
:10172000010BC9B2884209D80A2000F053FB0023FC
:1017300089F800300120FEF747FFD8E703934A4BB2
:101740000292595C104600F02DFB5946DDE9022358
:10175000E4E701213B48FFF791F801281FD14FF43E
:101760007A70FEF731FF3946444800F01BFB3F4AD0
:1017700035480023212188F80030117040490B7052
:101780002B8007F10109127837495FFA89F9FFF7D1
:1017900097FD10B13B4800F08DFB4F46CAE73288F9
:1017A00023889BB29342C5D0019B37481988228871
:1017B000338800F0F7FA354800F0F4FA23883288CD
:1017C0009A420DD2B4F800B0314B5FFA8BFB4FF068
:1017D00000090BEB0902D2B2632A0BD90023238044
:1017E000DFF8AC90238832889A4214D80A2000F09F
:1017F000F1FA9FE73288029352444A44184612F89D
:101800000B1000F0CFFA2A88029B013292B22A8094
:1018100009F10109DDE723889BB25A1C92B21AF83C
:1018200003102280484600F0BDFA2B8801339BB29A
:101830002B80D7E700380240000C0240A8000020AF
:1018400000080240000002407802002000440040EE
:10185000004800408E000020880000208C000020FE
:10186000E8000020602D0008B0010020900000205A
:101870006C2D0008912D0008DC2D0008972D000824
:1018800094000020A82D0008B42D0008D62D0008D3
:10189000DB2D0008920000208A000020910000202B
:1018A0004C0100200168174A9142F0B403460BD165
:1018B000C28C818C92B229B9134B14491A78F0BCAE
:1018C000FFF7FEBC8A4211D3F0BC70473478E4B213
:1018D000651CEDB235703D5C0CF80450013081425E
:1018E000F4DC52B1094801441846E8E70020891A9F
:1018F000074E064FDFF820C0F1E7064B01221A70B1
:10190000E2E700BF0044004090000020B00100204A
:1019100094000020910000201402002002681C4B5B
:101920009A42F0B505460CD1C28D818D92B231B983
:10193000184B19491A88BDE8F040FFF7E0BC8A420D
:1019400016D3F0BD0488A4B2642C08BF07800488B5
:10195000A4B2661CB6B206801CF803600EF80460E0
:1019600001339942EEDC62B10B4B19442846E2E7A1
:101970000023891A0948DFF820C0DFF828E01F4655
:10198000EFE7074B044901221A70024B1A88EDE772
:10199000004800408E000020E80000208C0000205D
:1019A000880000204C0100200368154A934270B55E
:1019B00004460CD1C58C848C1248ADB200F07AFA82
:1019C000224629461048BDE8704000F0EBB90F4AA6
:1019D000934213D1C58D868D0D48ADB200F06AFAE1
:1019E000324629460B4800F0DDF90B49761B2A46A2
:1019F00031442046BDE87040FFF781BC70BD00BF98
:101A000000440040E02C0008002D00080048004081
:101A1000202D0008402D0008E80000200268034B3C
:101A20009A4201D1FEF7BEBD704700BF00000140E1
:101A300082B00C4B002100915A6C42F480425A64EF
:101A40005A6C02F480420092009A01911A6C42F0A2
:101A500080521A641B6C03F080530193019B02B007
:101A6000704700BF0038024010B514228AB0044607
:101A700000210DEB020000F08DF92368304A9342FB
:101A80002ED1304B002401941A6C42F400321A64B7
:101A90001A6C02F400320192019A02941A6B42F01D
:101AA00001021A631B6B03F001030293029B0C20DB
:101AB0000223CDE905034FF0010C0323CDE907C351
:101AC00005A9072320480993FEF7F8FD26202246A2
:101AD0002146FEF79FFD2620FEF7D0FD0AB010BD7F
:101AE0001A4A9342FAD1174B1948002403941A6CEE
:101AF00042F480221A641A6C02F480220392039A40
:101B000004941A6B42F002021A631B6B03F0020387
:101B100004934FF44062049B0223CDE90523012185
:101B20000323CDE90713072305A90993FEF7C6FD93
:101B3000272022462146FEF76DFD2720CCE700BF77
:101B400000440040003802400000024000480040CD
:101B50000004024030B5014689B000221920FEF78A
:101B600059FD1920FEF78AFD0025154B02955A6C88
:101B7000144C42F001025A645B6C03F001030293BF
:101B800001A903A8029BFFF7EDF8FFF7DBF80E4B66
:101B9000236040F2E733E36040000C4BB0FBF3F00E
:101BA0000138606020462561A560FFF717FA20B96B
:101BB0002046FFF7F6F809B030BD0120FBE700BF73
:101BC00000380240B80200200000014040420F00EF
:101BD0007047FEE7FEE7FEE7FEE770477047704795
:101BE000704700000148FFF7F0B800BFB8020020BE
:101BF0000148FFF7E7BB00BF780200200148FFF76C
:101C0000E1BB00BFA800002070B50E4615460C468B
:101C1000A31B9D4201DC284670BDAFF3008004F891
:101C2000010BF5E730B500234FF06044934201DB30
:101C3000104630BDD4F8800EC50707D5D4F8000E85
:101C4000C00703D5C85C256815B120700133EDE7E6
:101C500000BFF8E708B50A4B1968024609B90949F7
:101C600019601868694602448A4206D900F068F88B
:101C70000C2303604FF0FF3008BD1A60FCE700BF83
:101C800098000020FC0200204FF0FF3070474FF416
:101C900000534B60002070470120704700207047C0
:101CA0000F49D1F8883043F47003C1F888300D4BE8
:101CB0001A68002042F001021A6098601A6822F047
:101CC000847222F480321A60074A5A601A6822F439
:101CD00080221A60D8604FF000638B60704700BFAD
:101CE00000ED00E00038024010300024DFF834D06E
:101CF000002103E00C4B5B58435004310B480C4B64
:101D000042189A42F6D30B4A02E0002342F8043B01
:101D1000094B9A42F9D3FFF7C3FF00F017F8FFF71A
:101D200043FC704700000220A42E000800000020A1
:101D30006C0000206C000020FC020020FEE7000088
:101D4000014B1868704700BF0800002070B50D4EA9
:101D50000D4CA41BA4100025A54209D10B4E0C4C20
:101D600000F0B2FFA41BA4100025A54205D170BD50
:101D700056F8253098470135EEE756F82530984754
:101D80000135F2E79C2E00089C2E00089C2E0008CE
:101D9000A02E000802440346934200D1704703F886
:101DA000011BF9E70FB40A4B13B51C6824B1A369F2
:101DB00013B9204600F036FA05AB049AA1680193E6
:101DC000204600F0EFFB02B0BDE8104004B07047C1
:101DD0000800002038B5084B1C68054624B1A369EB
:101DE00013B9204600F01EFAA26829462046BDE835
:101DF000384000F075BE00BF0800002070B50E46E8
:101E0000054618B183690BB900F00CFAAB69AC68F0
:101E100013B9284600F006FA234B9C4217D16C6890
:101E2000A3891B071DD52369DBB1013EA36816F802
:101E3000011F013BA360E9B9002B2EDA22460A21DB
:101E4000284600F03FF8013011D00A2011E0174B6E
:101E50009C4201D1AC68E3E7154B9C4208BFEC689B
:101E6000DEE72146284600F07FF80028DDD04FF05D
:101E7000FF3070BD002B04DAA2699A4206DC0A2901
:101E800004D023685A1C22601970CFE722462846E6
:101E900000F018F80130C9D1E9E723680A205A1C7C
:101EA00022601870E5E700BF202E0008402E0008D1
:101EB000002E0008024B01461868FFF79FBF00BFC5
:101EC00008000020F8B50E461446054618B183698F
:101ED0000BB900F0A7F9214B9C422AD16C68A36989
:101EE000A360A3891A072ED5236963B323692068E9
:101EF000C01A6369F6B28342374604DC214628469D
:101F000000F026F928BBA368013BA36023685A1C94
:101F100022601E7063690130834204D0A389DB070D
:101F200019D50A2E17D12146284600F011F990B193
:101F30000FE00B4B9C4201D1AC68D0E7094B9C42AF
:101F400008BFEC68CBE72146284600F00DF80028D2
:101F5000CCD04FF0FF373846F8BD00BF202E000828
:101F6000402E0008002E0008324B70B51D68064652
:101F70000C4625B1AB6913B9284600F053F92E4B36
:101F80009C420FD16C68B4F90C309AB215072CD46E
:101F9000D00611D40922326043F04003A3814FF0F0
:101FA000FF303EE0254B9C4201D1AC68EBE7244B6F
:101FB0009C4208BFEC68E6E7510712D5616B41B15E
:101FC00004F14403994202D0304600F019FA00238C
:101FD0006363A38923F02403A3810023636023693F
:101FE0002360A38943F00803A38123694BB9A38924
:101FF00003F42073B3F5007F03D02146304600F090
:10200000BFF9A28912F001030CD00023A360636919
:102010005B42A361236953B9B4F90C3013F080001B
:10202000BAD170BD920758BF6369A360F2E7002080
:10203000F7E700BF08000020202E0008402E00080F
:10204000002E00088A892DE9F041054610070C464C
:1020500058D44B68002B05DC0B6C002B02DC0020F5
:10206000BDE8F081E66A002EF9D0002312F4805218
:102070002F68216A2B6032D0606DA3895A0705D57D
:102080006368C01A636B0BB1236CC01A002302464D
:10209000E66A216A2846B047431CA38906D129680D
:1020A0001D2948D8294ACA40D60744D50022626073
:1020B000D9042269226004D5421C01D12B6803B9DE
:1020C0006065616B2F600029C9D004F14403994217
:1020D00002D0284600F094F900206063C0E7012395
:1020E0002846B047411CC8D12B68002BC5D01D2BFA
:1020F00001D0162B01D12F60B1E7A38943F0400333
:10210000A381ADE70F69002FA9D093070E6808BF20
:102110004B690F6018BF0023A6EB07088B60B8F16E
:10212000000F9CDD43463A46216AA66A2846B0471E
:10213000002806DCA38943F04003A3814FF0FF3061
:102140008EE70744A8EB0008E9E700BF0100402044
:1021500038B50B6905460C46DBB118B183690BB97C
:1021600000F060F80C4B9C4209D16C68B4F90C305B
:102170007BB121462846BDE83840FFF763BF074BD7
:102180009C4201D1AC68F1E7054B9C4208BFEC686A
:10219000ECE7002038BD00BF202E0008402E0008CC
:1021A000002E0008002310B50446C0E90033836008
:1021B00081814366C281C0E90433836119460822E4
:1021C0005C30FFF7E7FD054B6362054BA362054BEF
:1021D000E362054B2462236310BD00BF6D2B000832
:1021E0008F2B0008C72B0008EB2B0008014900F0DB
:1021F00085B800BF5121000870B54A1E68255543B7
:102200000E4605F1740100F049F9044640B1002181
:10221000C0E900160C30A06005F16802FFF7BAFDB6
:10222000204670BD836910B5044633BBC0E9123344
:102230000365124B124A1B688262984204BF012355
:10224000836100F01FF86060204600F01BF8A0607A
:10225000204600F017F80022E06004216068FFF7D4
:10226000A1FF01220921A068FFF79CFF0222122191
:10227000E068FFF797FF0123A36110BDFC2D000864
:10228000ED210008F8B51B4B1E68B369074613B96A
:102290003046FFF7C7FF4836D6E90134013B03D586
:1022A000336833B13668F7E7B4F90C506DB1683470
:1022B000F4E704213846FFF79FFF30600028F1D192
:1022C0000C233B6004462046F8BD0B4B6566C4E911
:1022D0000055A560C4E90335C4E90555082229461F
:1022E00004F15C00FFF756FDC4E90D55C4E9125531
:1022F000E9E700BFFC2D00080100FFFF2DE9F843CE
:102300008046894600F14804002614B93046BDE8ED
:10231000F883D4E90175013F01D52468F5E7AB895D
:10232000012B07D9B5F90E30013303D029464046B9
:10233000C84706436835EEE770B50E46B1F90E1092
:10234000002996B014461D4607DA00232B60B38996
:102350001A0610D44FF480630EE06A4600F06CFC5D
:102360000028F2DB019A02F47042A2F500535A42AF
:102370005A412A60EEE740230020236016B070BD6A
:102380008B8973B59D0706460C4607D504F14703B4
:10239000236023610123636102B070BD01AB6A4613
:1023A000FFF7CAFF00990546304600F077F848B9B4
:1023B000B4F90C309A05EFD423F0030343F0020381
:1023C000A381E3E70D4BB362A389206043F0800350
:1023D000A381009B6361019B20615BB1B4F90E1086
:1023E000304600F03BFC28B1A38923F0030343F0FF
:1023F0000103A381A3891D43A581CDE7ED21000839
:1024000038B50546002945D051F8043C0C1F002B77
:10241000B8BFE41800F044FC1F4A1368104633B9F3
:10242000636014602846BDE8384000F03ABCA3421F
:102430000CD921686218934204BF1A685B68636014
:1024400004BF521822600460ECE713465A680AB1D0
:10245000A242FAD919685818A0420BD12068014449
:10246000581882421960DDD1106852685A600144E0
:102470001960D7E702D90C232B60D3E72068211815
:102480008A4204BF11685268626004BF0918216063
:102490005C60C7E738BD00BF9C00002070B5CD1C54
:1024A00025F0030508350C2D38BF0C25002D0646F8
:1024B00001DBA94203D90C233360002070BD00F07A
:1024C000EFFB214A1468214691B9204C23681BB9BF
:1024D000304600F03BFB20602946304600F036FBDA
:1024E000431C24D10C233360304600F0DAFBE4E7D0
:1024F0000B685B1B18D40B2B0FD90B60CD50CC187D
:10250000304600F0CEFB04F10B00231D20F0070045
:10251000C31AD3D05A42E250D0E78C424B6816BF60
:10252000636013600C46EBE70C464968CCE7C41CBB
:1025300024F00304A04205D0211A304600F006FB27
:102540000130CFD02560DBE79C000020A0000020F8
:102550009368013B002B10B4936008DA9469A3429E
:1025600001DB0A2903D15DF8044BFFF7ABBC13680C
:10257000581C1060197008465DF8044B7047F8B598
:1025800006460F461446D518AC4201D1002007E09C
:102590003A4614F8011B3046FFF7DAFF431CF3D12B
:1025A000F8BD00002DE9F04F0C469DB017461D46C2
:1025B000064618B183690BB9FFF734FE7C4B9C4289
:1025C00058D17468A38918075ED52369002B5BD0A6
:1025D0000023099320238DF8293030238DF82A30E9
:1025E00003954FF0010BB846454615F8013B0BB17A
:1025F000252B54D1B8EB070A0BD053463A46214657
:102600003046FFF7BCFF013000F0C280099B534405
:10261000099398F80030002B00F0BA8000234FF0A7
:10262000FF32CDE90523049307938DF853301A93B5
:10263000A846052218F8011B5E48FDF7C9FD049B5A
:1026400078BBD90644BF20228DF853201A0744BF17
:102650002B228DF853202A782A2A2AD0079AA846B6
:1026600000200A25414611F8013B303B092B69D96E
:1026700060B324E0504B9C4201D1B468A2E74F4BB9
:102680009C4208BFF4689DE721463046FFF76CFC8A
:1026900000289DD04FF0FF301DB0BDE8F08FA84658
:1026A000A2E7444A801A0BFA00F01843049045460A
:1026B000BEE7039A111D12680391002A01DB0792FD
:1026C00004E0524243F002030792049398F800306A
:1026D0002E2B0ED198F801302A2B38D1039B1A1DCE
:1026E0001B680392002BB8BF4FF0FF3308F10208BC
:1026F0000593334D98F8001003222846FDF768FD36
:1027000040B14023401B03FA00F0049B034308F14F
:102710000108049398F800102A488DF82810062222
:1027200008F10107FDF754FD002837D0264B1BBBED
:10273000039B073323F0070308330393099B4B44A0
:10274000099350E705FB0232012088468AE70023FF
:1027500008F10108059319460A25404610F8012B97
:10276000303A092A03D9002BC3D00591C1E705FBF4
:10277000012101238046F0E703AB00932246134B6F
:1027800004A93046AFF30080B0F1FF3F8146D5D1B8
:10279000A3895B063FF57EAF09987DE703AB009305
:1027A00022460A4B04A9304600F088F8ECE700BF47
:1027B000202E0008602E0008402E0008002E000881
:1027C000662E00086A2E0008000000007F25000821
:1027D0002DE9F04791461F468A680B69DDF8208095
:1027E0009342B8BF1346C9F8003091F8432006461B
:1027F0000C4612B10133C9F800302368990642BF74
:10280000D9F800300233C9F80030256815F0060504
:1028100007D104F1190AE368D9F800209B1AAB42EA
:1028200028DC94F843302268003318BF0123920655
:102830002DD404F1430239463046C047013020D040
:102840002368E568D9F8002003F00603042B08BFCD
:10285000AD1AA36822690CBF25EAE57500259342ED
:10286000C4BF9B1AED184FF000091A344D451AD118
:10287000002008E00123524639463046C047013067
:1028800003D14FF0FF30BDE8F0870135C3E7E11811
:102890005A1C302081F84300224494F8451082F8F5
:1028A00043100233C5E70123224639463046C0476C
:1028B0000130E6D009F10109D8E700002DE9F04325
:1028C00001F1430C0C46097E85B06E291746064679
:1028D00098460C9A00F0B38022D8632936D00AD8E3
:1028E000002900F0B980582900F0838004F14205E6
:1028F00084F8421032E0642901D06929F6D12068B9
:102900001368050603F104012AD51B681160002B2A
:1029100003DA2D225B4284F843206F480A2239E013
:10292000732900F09D8008D86F2920D07029DDD14F
:10293000236843F02003236003E0752917D078292A
:10294000D4D1782384F84530644855E01368191DC4
:102950001B68116004F1420584F8423001238CE0C9
:102960001B68116010F0400F18BF1BB2CFE713684F
:102970002568181D1060280601D51B6802E068064E
:10298000FBD51B8854486F2914BF0A220822002156
:1029900084F843106568A560002DC0F29580216819
:1029A00021F004012160002B3DD1002D40F08E80EC
:1029B0006546082A0BD12368DB0708D523696268BE
:1029C0009A42DEBF302305F8013C05F1FF35ACEB40
:1029D00005032361CDF800803B4603AA214630461B
:1029E000FFF7F6FE01304DD14FF0FF3005B0BDE8E6
:1029F000F083394884F84510136821681D1D1B6851
:102A000015600A060BD5CA0744BF41F020012160BA
:102A10001BB9226822F0200222601022B7E74D067F
:102A200048BF9BB2EFE76546B3FBF2F102FB1133FF
:102A3000C35C05F8013D0B460029F5D1B9E71368E1
:102A400025686169181D106028061B6801D519608A
:102A500002E06A06FBD51980002323616546B9E7C9
:102A60001368191D11601D68626800212846FDF772
:102A7000AFFB08B1401B606063682361002384F8EA
:102A80004330A7E723692A4639463046C04701301C
:102A9000AAD023689B0713D4E068039B9842B8BF71
:102AA0001846A3E701234A4639463046C04701305D
:102AB0009AD00135E368039A9B1AAB42F2DCEBE74C
:102AC000002504F11909F5E7002BACD1037884F84F
:102AD000423004F142056CE7712E0008822E000896
:102AE00070B50D461446064618B183690BB9FFF759
:102AF00099FB134B9C4212D17468A368013B002BD5
:102B0000A36016DAA269934202DBEBB20A2B10D162
:102B1000224629463046BDE87040FFF7D3B9094B3D
:102B20009C4201D1B468E8E7074B9C4208BFF468B7
:102B3000E3E723685A1C22601D70E8B270BD00BF35
:102B4000202E0008402E0008002E000838B5064C44
:102B50000023054608462360FFF77CF8431C02D19A
:102B6000236803B12B6038BDF802002010B50C4675
:102B7000B1F90E1000F096F80028ABBF636DA38981
:102B80001B1823F48053ACBF6365A38110BD2DE9EE
:102B9000F0411F468B89DB0505460C46164605D5D8
:102BA00002230022B1F90E1000F068F8A389B4F9ED
:102BB0000E1023F48053A38132463B462846BDE8DD
:102BC000F04100F017B810B50C46B1F90E1000F046
:102BD00055F8431CA38915BF606523F4805343F463
:102BE0008053A38118BFA38110BDB1F90E1000F06E
:102BF00013B8000038B5074C0546084611460022B8
:102C000022601A46FFF70EF8431C02D1236803B175
:102C10002B6038BDF802002038B5064C002305466D
:102C200008462360FFF730F8431C02D1236803B144
:102C30002B6038BDF802002038B5074C002305464C
:102C4000084611462360FFF722F8431C02D123688F
:102C500003B12B6038BD00BFF802002038B5064C28
:102C60000023054608462360FFF716F8431C02D1EF
:102C7000236803B12B6038BDF802002038B5074C3B
:102C8000054608461146002222601A46FFF706F85C
:102C9000431C02D1236803B12B6038BDF802002029
:102CA0007047704738B5074C054608461146002264
:102CB00022601A46FEF7A8FF431C02D1236803B125
:102CC0002B6038BDF8020020F8B500BFF8BC08BC86
:102CD0009E467047F8B500BFF8BC08BC9E467047DA
:102CE0003E2048414C5F554152545F4572726F72AD
:102CF00043616C6C6261636B2055534152543200E6
:102D00003E20547858666572436F756E743D256435
:102D10002054785866657253697A653D25640A00C7
:102D20003C2048414C5F554152545F4572726F726E
:102D300043616C6C6261636B2055534152543300A4
:102D40003C20527858666572436F756E743D2564F9
:102D50002052785866657253697A653D25640A0089
:102D60003C2048414C5F4552524F52003D3E20743A
:102D70006F5472616E736665723D2564207761736E
:102D80005472616E736665727265643D2564200AD3
:102D9000002D2D3E2020000A202D2D2D2D202564D4
:102DA000202D2D2D2D2D0A003E2048414C5F4552EF
:102DB000524F52003C3D20746F526561643D256462
:102DC000207278506F73313D2564207278506F7394
:102DD000323D25640A003C2D2D2000203078252E20
:102DE000325820000000000000000000010203042F
:102DF0000607080900000000010203040C0000207F
:102E000000000000000000000000000000000000C2
:102E100000000000000000000000000000000000B2
:102E200000000000000000000000000000000000A2
:102E30000000000000000000000000000000000092
:102E40000000000000000000000000000000000082
:102E50000000000000000000000000000000000072
:102E6000232D302B2000686C4C0065666745464773
:102E700000303132333435363738394142434445F6
:102E80004600303132333435363738396162636465
:042E90006566000073
:082E94000CD4FF7F01000000D7
:042E9C00B501000874
:042EA0009101000894
:102EA400010000000024F4000C00002000000000D9
:102EB400202E0008402E0008002E0008000000000C
:102EC40000000000000000000000000000000000FE
:102ED40000000000000000000000000000000000EE
:102EE40000000000000000000000000000000000DE
:102EF40000000000000000000000000000000000CE
:0C2F0400000000000000000000000000C1
:0400000508001CEDE6
:00000001FF
